{
  "contractName": "Constants",
  "abi": [
    {
      "constant": true,
      "inputs": [],
      "name": "SocialNetworkName",
      "outputs": [
        {
          "name": "",
          "type": "string"
        }
      ],
      "payable": false,
      "stateMutability": "view",
      "type": "function",
      "signature": "0x4d786e3e"
    },
    {
      "constant": true,
      "inputs": [],
      "name": "getNetworkName",
      "outputs": [
        {
          "name": "",
          "type": "string"
        }
      ],
      "payable": false,
      "stateMutability": "pure",
      "type": "function",
      "signature": "0x94074b03"
    }
  ],
  "bytecode": "0x610210610030600b82828239805160001a6073146000811461002057610022565bfe5b5030600052607381538281f3fe7300000000000000000000000000000000000000003014608060405260043610610063576000357c0100000000000000000000000000000000000000000000000000000000900463ffffffff1680634d786e3e1461006857806394074b03146100eb575b600080fd5b61007061016e565b6040518080602001828103825283818151815260200191508051906020019080838360005b838110156100b0578082015181840152602081019050610095565b50505050905090810190601f1680156100dd5780820380516001836020036101000a031916815260200191505b509250505060405180910390f35b6100f36101a7565b6040518080602001828103825283818151815260200191508051906020019080838360005b83811015610133578082015181840152602081019050610118565b50505050905090810190601f1680156101605780820380516001836020036101000a031916815260200191505b509250505060405180910390f35b6040805190810160405280602081526020017f49424320446563656e7472616c697a656420536f6369616c204e6574776f726b81525081565b60606040805190810160405280602081526020017f49424320446563656e7472616c697a656420536f6369616c204e6574776f726b81525090509056fea165627a7a72305820afe34a816c78c66437cdd986aff22b9e8f44eb4ba8615512d1e77566543bdeef0029",
  "source": "pragma solidity ^0.5.0;\r\n\r\nlibrary Constants {\r\n    string public constant SocialNetworkName = \"IBC Decentralized Social Network\";\r\n    \r\n    function getNetworkName() public pure returns(string memory){\r\n      return SocialNetworkName;\r\n    }\r\n}",
  "sourcePath": "C:\\Users\\Abhishek\\Desktop\\git_projs\\Decentralized-Social-Network\\src\\contracts\\Constants.sol",
  "compiler": {
    "name": "solc",
    "version": "0.5.0+commit.1d4f565a.Emscripten.clang"
  },
  "schemaVersion": "3.0.2",
  "updatedAt": "2021-11-21T14:13:30.577Z",
  "devdoc": {
    "methods": {}
  },
  "userdoc": {
    "methods": {}
  }
}