{
  "contractName": "User",
  "abi": [
    {
      "constant": true,
      "inputs": [
        {
          "name": "",
          "type": "bytes32"
        }
      ],
      "name": "names",
      "outputs": [
        {
          "name": "",
          "type": "bytes32"
        }
      ],
      "payable": false,
      "stateMutability": "view",
      "type": "function",
      "signature": "0x20c38e2b"
    },
    {
      "constant": true,
      "inputs": [
        {
          "name": "",
          "type": "uint256"
        }
      ],
      "name": "users",
      "outputs": [
        {
          "name": "id",
          "type": "uint256"
        },
        {
          "name": "name",
          "type": "bytes32"
        }
      ],
      "payable": false,
      "stateMutability": "view",
      "type": "function",
      "signature": "0x365b98b2"
    },
    {
      "constant": true,
      "inputs": [],
      "name": "totalUsers",
      "outputs": [
        {
          "name": "",
          "type": "uint256"
        }
      ],
      "payable": false,
      "stateMutability": "view",
      "type": "function",
      "signature": "0xbff1f9e1"
    },
    {
      "constant": true,
      "inputs": [
        {
          "name": "",
          "type": "address"
        }
      ],
      "name": "usernames",
      "outputs": [
        {
          "name": "",
          "type": "bytes32"
        }
      ],
      "payable": false,
      "stateMutability": "view",
      "type": "function",
      "signature": "0xee91877c"
    },
    {
      "anonymous": false,
      "inputs": [
        {
          "indexed": false,
          "name": "b1",
          "type": "bool"
        }
      ],
      "name": "LoggedIn",
      "type": "event",
      "signature": "0xdee6aaa10f6c136b5202563940cda30c70c0c4403362ac729ceeb04601f09209"
    },
    {
      "constant": false,
      "inputs": [
        {
          "name": "name",
          "type": "bytes32"
        },
        {
          "name": "pass",
          "type": "string"
        }
      ],
      "name": "login",
      "outputs": [
        {
          "name": "",
          "type": "bool"
        }
      ],
      "payable": false,
      "stateMutability": "nonpayable",
      "type": "function",
      "signature": "0xfeb6cec2"
    },
    {
      "constant": false,
      "inputs": [
        {
          "name": "_name",
          "type": "bytes32"
        }
      ],
      "name": "createUser",
      "outputs": [],
      "payable": false,
      "stateMutability": "nonpayable",
      "type": "function",
      "signature": "0xabf7bfd8"
    }
  ],
  "bytecode": "0x6080604052600060035534801561001557600080fd5b506104fd806100256000396000f3fe608060405260043610610078576000357c0100000000000000000000000000000000000000000000000000000000900463ffffffff16806320c38e2b1461007d578063365b98b2146100cc578063abf7bfd814610122578063bff1f9e11461015d578063ee91877c14610188578063feb6cec2146101ed575b600080fd5b34801561008957600080fd5b506100b6600480360360208110156100a057600080fd5b81019080803590602001909291905050506102d7565b6040518082815260200191505060405180910390f35b3480156100d857600080fd5b50610105600480360360208110156100ef57600080fd5b81019080803590602001909291905050506102ef565b604051808381526020018281526020019250505060405180910390f35b34801561012e57600080fd5b5061015b6004803603602081101561014557600080fd5b8101908080359060200190929190505050610313565b005b34801561016957600080fd5b506101726103c0565b6040518082815260200191505060405180910390f35b34801561019457600080fd5b506101d7600480360360208110156101ab57600080fd5b81019080803573ffffffffffffffffffffffffffffffffffffffff1690602001909291905050506103c6565b6040518082815260200191505060405180910390f35b3480156101f957600080fd5b506102bd6004803603604081101561021057600080fd5b81019080803590602001909291908035906020019064010000000081111561023757600080fd5b82018360208201111561024957600080fd5b8035906020019184600183028401116401000000008311171561026b57600080fd5b91908080601f016020809104026020016040519081016040528093929190818152602001838380828437600081840152601f19601f8201169050808301925050505050505091929192905050506103de565b604051808215151515815260200191505060405180910390f35b60026020528060005260406000206000915090505481565b60006020528060005260406000206000915090508060000154908060010154905082565b60036000815480929190600101919050555060003390506103326104b4565b60408051908101604052806003548152602001848152509050806000806003548152602001908152602001600020600082015181600001556020820151816001015590505082600160008473ffffffffffffffffffffffffffffffffffffffff1673ffffffffffffffffffffffffffffffffffffffff16815260200190815260200160002081905550505050565b60035481565b60016020528060005260406000206000915090505481565b600080600260008581526020019081526020016000205490506000836040516020018082805190602001908083835b602083101515610432578051825260208201915060208101905060208303925061040d565b6001836020036101000a0380198251168184511680821785525050505050509050019150506040516020818303038152906040528051906020012090507fdee6aaa10f6c136b5202563940cda30c70c0c4403362ac729ceeb04601f09209818314604051808215151515815260200191505060405180910390a1505092915050565b60408051908101604052806000815260200160008019168152509056fea165627a7a72305820d64cfcb2ee2a0b7ecd32fad0921664886a84e35de95f923d8fbbe8294d363eec0029",
  "source": "pragma solidity ^0.5.0;\r\n\r\ncontract User{\r\n\r\n\tmapping(uint => Account) public users;\r\n\tmapping(address => bytes32) public usernames;\r\n\tmapping (bytes32 => bytes32) public names;\r\n\tuint public totalUsers = 0;\r\n\r\n\t\r\n\tstruct Account{\r\n\t\tuint id;\r\n\t\tbytes32 name;\r\n\t\t// address addr;\r\n\t}\r\n\r\n\t// event UserCreated(\r\n\t// \tuint id,\r\n\t// \tstring name\r\n\t// );\r\n\r\n\tevent LoggedIn(\r\n\t\tbool b1\r\n\t);\r\n\r\n\tfunction login(bytes32 name, string memory pass) public returns(bool){\r\n\t\tbytes32 p1 = names[name];\r\n\t\tbytes32 p2 = keccak256(abi.encodePacked(pass));\r\n\t\temit LoggedIn(p1==p2);\r\n\t}\r\n\r\n\tfunction createUser(bytes32 _name) public {\r\n\t\ttotalUsers++;\r\n\t\taddress addr = msg.sender;\r\n\t\tAccount memory acc = Account(totalUsers, _name);\r\n\t\tusers[totalUsers] = acc;\r\n\t\tusernames[addr] = _name;\r\n\t\t// names[_name] = totalUsers;\r\n\t\t// emit UserCreated(id, name);\r\n\t}\r\n\r\n\t// function getUser(address pubkey) view public returns(uint, string memory){\r\n\t// \temit UserReturned(\r\n\t// \t\taccount[pubkey].id,\r\n\t// \t\taccount[pubkey].name\r\n\t// \t);\r\n\t// }\r\n}",
  "sourcePath": "C:/Users/Abhishek/Desktop/git_projs/Decentralized-Social-Network/src/contracts/User.sol",
  "compiler": {
    "name": "solc",
    "version": "0.5.0+commit.1d4f565a.Emscripten.clang"
  },
  "schemaVersion": "3.0.2",
  "updatedAt": "2021-12-13T21:18:51.488Z",
  "devdoc": {
    "methods": {}
  },
  "userdoc": {
    "methods": {}
  }
}