{
  "contractName": "User",
  "abi": [
    {
      "constant": true,
      "inputs": [
        {
          "name": "",
          "type": "bytes32"
        }
      ],
      "name": "names",
      "outputs": [
        {
          "name": "",
          "type": "bytes32"
        }
      ],
      "payable": false,
      "stateMutability": "view",
      "type": "function",
      "signature": "0x20c38e2b"
    },
    {
      "constant": true,
      "inputs": [
        {
          "name": "",
          "type": "uint256"
        }
      ],
      "name": "users",
      "outputs": [
        {
          "name": "id",
          "type": "uint256"
        },
        {
          "name": "name",
          "type": "bytes32"
        },
        {
          "name": "dateOfJoining",
          "type": "uint256"
        }
      ],
      "payable": false,
      "stateMutability": "view",
      "type": "function",
      "signature": "0x365b98b2"
    },
    {
      "constant": true,
      "inputs": [
        {
          "name": "",
          "type": "address"
        }
      ],
      "name": "accounts",
      "outputs": [
        {
          "name": "id",
          "type": "uint256"
        },
        {
          "name": "name",
          "type": "bytes32"
        },
        {
          "name": "dateOfJoining",
          "type": "uint256"
        }
      ],
      "payable": false,
      "stateMutability": "view",
      "type": "function",
      "signature": "0x5e5c06e2"
    },
    {
      "constant": true,
      "inputs": [],
      "name": "totalUsers",
      "outputs": [
        {
          "name": "",
          "type": "uint256"
        }
      ],
      "payable": false,
      "stateMutability": "view",
      "type": "function",
      "signature": "0xbff1f9e1"
    },
    {
      "anonymous": false,
      "inputs": [
        {
          "indexed": false,
          "name": "b1",
          "type": "bool"
        }
      ],
      "name": "LoggedIn",
      "type": "event",
      "signature": "0xdee6aaa10f6c136b5202563940cda30c70c0c4403362ac729ceeb04601f09209"
    },
    {
      "constant": false,
      "inputs": [
        {
          "name": "name",
          "type": "bytes32"
        },
        {
          "name": "pass",
          "type": "string"
        }
      ],
      "name": "login",
      "outputs": [],
      "payable": false,
      "stateMutability": "nonpayable",
      "type": "function",
      "signature": "0xfeb6cec2"
    },
    {
      "constant": false,
      "inputs": [
        {
          "name": "_name",
          "type": "bytes32"
        }
      ],
      "name": "createUser",
      "outputs": [],
      "payable": false,
      "stateMutability": "nonpayable",
      "type": "function",
      "signature": "0xabf7bfd8"
    }
  ],
  "bytecode": "0x6080604052600060035534801561001557600080fd5b5061055d806100256000396000f3fe608060405260043610610078576000357c0100000000000000000000000000000000000000000000000000000000900463ffffffff16806320c38e2b1461007d578063365b98b2146100cc5780635e5c06e214610129578063abf7bfd81461019c578063bff1f9e1146101d7578063feb6cec214610202575b600080fd5b34801561008957600080fd5b506100b6600480360360208110156100a057600080fd5b81019080803590602001909291905050506102d4565b6040518082815260200191505060405180910390f35b3480156100d857600080fd5b50610105600480360360208110156100ef57600080fd5b81019080803590602001909291905050506102ec565b60405180848152602001838152602001828152602001935050505060405180910390f35b34801561013557600080fd5b506101786004803603602081101561014c57600080fd5b81019080803573ffffffffffffffffffffffffffffffffffffffff169060200190929190505050610316565b60405180848152602001838152602001828152602001935050505060405180910390f35b3480156101a857600080fd5b506101d5600480360360208110156101bf57600080fd5b8101908080359060200190929190505050610340565b005b3480156101e357600080fd5b506101ec610421565b6040518082815260200191505060405180910390f35b34801561020e57600080fd5b506102d26004803603604081101561022557600080fd5b81019080803590602001909291908035906020019064010000000081111561024c57600080fd5b82018360208201111561025e57600080fd5b8035906020019184600183028401116401000000008311171561028057600080fd5b91908080601f016020809104026020016040519081016040528093929190818152602001838380828437600081840152601f19601f820116905080830192505050505050509192919290505050610427565b005b60026020528060005260406000206000915090505481565b60006020528060005260406000206000915090508060000154908060010154908060020154905083565b60016020528060005260406000206000915090508060000154908060010154908060020154905083565b6003600081548092919060010191905055506000339050600042905061036461050c565b606060405190810160405280600354815260200185815260200183815250905080600080600354815260200190815260200160002060008201518160000155602082015181600101556040820151816002015590505080600160008573ffffffffffffffffffffffffffffffffffffffff1673ffffffffffffffffffffffffffffffffffffffff16815260200190815260200160002060008201518160000155602082015181600101556040820151816002015590505050505050565b60035481565b60006002600084815260200190815260200160002054905060006001028111151561045157600080fd5b6000826040516020018082805190602001908083835b60208310151561048c5780518252602082019150602081019050602083039250610467565b6001836020036101000a0380198251168184511680821785525050505050509050019150506040516020818303038152906040528051906020012090507fdee6aaa10f6c136b5202563940cda30c70c0c4403362ac729ceeb04601f09209818314604051808215151515815260200191505060405180910390a150505050565b606060405190810160405280600081526020016000801916815260200160008152509056fea165627a7a72305820492261810011bfd711491b08ca69c6f5339adc81e9a41f6b5a9972ad8c4b0e200029",
  "source": "pragma solidity ^0.5.0;\r\n\r\ncontract User{\r\n\r\n\tmapping(uint => Account) public users;\r\n\tmapping(address => Account) public accounts;\r\n\tmapping (bytes32 => bytes32) public names;\r\n\tuint public totalUsers = 0;\r\n\r\n\t\r\n\tstruct Account{\r\n\t\tuint id;\r\n\t\tbytes32 name;\r\n\t\tuint256 dateOfJoining;\r\n\t\t// address addr;\r\n\t}\r\n\r\n\t// event UserCreated(\r\n\t// \tuint id,\r\n\t// \tstring name\r\n\t// );\r\n\r\n\tevent LoggedIn(\r\n\t\tbool b1\r\n\t);\r\n\r\n\tfunction login(bytes32 name, string memory pass) public{\r\n\t\tbytes32 p1 = names[name];\r\n\t\trequire(p1 > 0);\r\n\t\tbytes32 p2 = keccak256(abi.encodePacked(pass));\r\n\t\temit LoggedIn(p1==p2);\r\n\t}\r\n\r\n\tfunction createUser(bytes32 _name) public {\r\n\t\ttotalUsers++;\r\n\t\taddress addr = msg.sender;\r\n\t\tuint256 _dateOfJoining = block.timestamp;\r\n\t\tAccount memory acc = Account(totalUsers, _name, _dateOfJoining);\r\n\t\tusers[totalUsers] = acc;\r\n\t\taccounts[addr] = acc;\r\n\t\t// names[_name] = totalUsers;\r\n\t\t// emit UserCreated(id, name);\r\n\t}\r\n\r\n\t// function getUser(address pubkey) view public returns(uint, string memory){\r\n\t// \temit UserReturned(\r\n\t// \t\taccount[pubkey].id,\r\n\t// \t\taccount[pubkey].name\r\n\t// \t);\r\n\t// }\r\n}",
  "sourcePath": "C:/Users/Abhishek/Desktop/git_projs/Decentralized-Social-Network/src/contracts/User.sol",
  "compiler": {
    "name": "solc",
    "version": "0.5.0+commit.1d4f565a.Emscripten.clang"
  },
  "schemaVersion": "3.0.2",
  "updatedAt": "2021-12-14T15:15:53.139Z",
  "devdoc": {
    "methods": {}
  },
  "userdoc": {
    "methods": {}
  }
}