{
  "contractName": "User",
  "abi": [
    {
      "constant": true,
      "inputs": [
        {
          "name": "",
          "type": "bytes32"
        }
      ],
      "name": "names",
      "outputs": [
        {
          "name": "",
          "type": "uint256"
        }
      ],
      "payable": false,
      "stateMutability": "view",
      "type": "function",
      "signature": "0x20c38e2b"
    },
    {
      "constant": false,
      "inputs": [
        {
          "name": "_name",
          "type": "bytes32"
        },
        {
          "name": "_firstname",
          "type": "bytes32"
        },
        {
          "name": "_lastname",
          "type": "bytes32"
        }
      ],
      "name": "createUser",
      "outputs": [
        {
          "name": "",
          "type": "uint256"
        }
      ],
      "payable": false,
      "stateMutability": "nonpayable",
      "type": "function",
      "signature": "0xaff96101"
    },
    {
      "constant": true,
      "inputs": [
        {
          "name": "_id",
          "type": "uint256"
        }
      ],
      "name": "getUser",
      "outputs": [
        {
          "name": "",
          "type": "uint256"
        },
        {
          "name": "",
          "type": "bytes32"
        }
      ],
      "payable": false,
      "stateMutability": "view",
      "type": "function",
      "signature": "0xb0467deb"
    }
  ],
  "bytecode": "0x6080604052600060025534801561001557600080fd5b5061027d806100256000396000f3fe608060405260043610610057576000357c0100000000000000000000000000000000000000000000000000000000900463ffffffff16806320c38e2b1461005c578063aff96101146100ab578063b0467deb1461010e575b600080fd5b34801561006857600080fd5b506100956004803603602081101561007f57600080fd5b8101908080359060200190929190505050610164565b6040518082815260200191505060405180910390f35b3480156100b757600080fd5b506100f8600480360360608110156100ce57600080fd5b8101908080359060200190929190803590602001909291908035906020019092919050505061017c565b6040518082815260200191505060405180910390f35b34801561011a57600080fd5b506101476004803603602081101561013157600080fd5b8101908080359060200190929190505050610219565b604051808381526020018281526020019250505060405180910390f35b60016020528060005260406000206000915090505481565b6000600260008154809291906001019190505550608060405190810160405280600254815260200185815260200184815260200183815250600080600254815260200190815260200160002060008201518160000155602082015181600101556040820151816002015560608201518160030155905050600254600160008681526020019081526020016000208190555060025490509392505050565b60008060008084815260200190815260200160002060000154600080858152602001908152602001600020600101549150915091509156fea165627a7a72305820f361fb3a5571fc9f2684f573309a294f36c1ae4cc10e28fbf9f8c643996aa68c0029",
  "source": "pragma solidity ^0.5.0;\r\n\r\ncontract User{\r\n\r\n\tmapping(uint => Account) account;\r\n\tmapping (bytes32 => uint) public names;\r\n\r\n\tuint totalUsers = 0;\r\n\r\n\t\r\n\tstruct Account{\r\n\t\tuint id;\r\n\t\tbytes32 name;\r\n\t\tbytes32 firstName;\r\n    \tbytes32 lastName;\r\n\t}\r\n\r\n\tfunction createUser(bytes32 _name, bytes32 _firstname, bytes32 _lastname) public returns(uint){\r\n\t\ttotalUsers++;\r\n\t\taccount[totalUsers] = Account(totalUsers, _name, _firstname, _lastname);\r\n\t\tnames[_name] = totalUsers;\r\n\t\treturn totalUsers;\r\n\t}\r\n\r\n\tfunction getUser(uint _id) view public returns(uint, bytes32){\r\n\t\treturn(\r\n\t\t\taccount[_id].id,\r\n\t\t\taccount[_id].name\r\n\t\t);\r\n\t}\r\n}",
  "sourcePath": "C:/Users/Abhishek/Desktop/git_projs/Decentralized-Social-Network/src/contracts/User.sol",
  "compiler": {
    "name": "solc",
    "version": "0.5.0+commit.1d4f565a.Emscripten.clang"
  },
  "schemaVersion": "3.0.2",
  "updatedAt": "2021-12-13T16:14:50.304Z",
  "devdoc": {
    "methods": {}
  },
  "userdoc": {
    "methods": {}
  }
}