{
  "contractName": "User",
  "abi": [
    {
      "constant": true,
      "inputs": [
        {
          "name": "",
          "type": "bytes32"
        }
      ],
      "name": "names",
      "outputs": [
        {
          "name": "",
          "type": "bytes32"
        }
      ],
      "payable": false,
      "stateMutability": "view",
      "type": "function",
      "signature": "0x20c38e2b"
    },
    {
      "constant": true,
      "inputs": [
        {
          "name": "",
          "type": "uint256"
        }
      ],
      "name": "users",
      "outputs": [
        {
          "name": "id",
          "type": "uint256"
        },
        {
          "name": "name",
          "type": "bytes32"
        },
        {
          "name": "dateOfJoining",
          "type": "uint256"
        }
      ],
      "payable": false,
      "stateMutability": "view",
      "type": "function",
      "signature": "0x365b98b2"
    },
    {
      "constant": true,
      "inputs": [
        {
          "name": "",
          "type": "address"
        }
      ],
      "name": "accounts",
      "outputs": [
        {
          "name": "id",
          "type": "uint256"
        },
        {
          "name": "name",
          "type": "bytes32"
        },
        {
          "name": "dateOfJoining",
          "type": "uint256"
        }
      ],
      "payable": false,
      "stateMutability": "view",
      "type": "function",
      "signature": "0x5e5c06e2"
    },
    {
      "constant": true,
      "inputs": [],
      "name": "totalUsers",
      "outputs": [
        {
          "name": "",
          "type": "uint256"
        }
      ],
      "payable": false,
      "stateMutability": "view",
      "type": "function",
      "signature": "0xbff1f9e1"
    },
    {
      "anonymous": false,
      "inputs": [
        {
          "indexed": false,
          "name": "id",
          "type": "uint256"
        },
        {
          "indexed": false,
          "name": "name",
          "type": "bytes32"
        }
      ],
      "name": "UserCreated",
      "type": "event",
      "signature": "0xa99539b072b4b36534f56e572a5d8c0d2ec61b125d06dac0fa397cb21c9f3d3b"
    },
    {
      "anonymous": false,
      "inputs": [
        {
          "indexed": false,
          "name": "b1",
          "type": "bool"
        }
      ],
      "name": "LoggedIn",
      "type": "event",
      "signature": "0xdee6aaa10f6c136b5202563940cda30c70c0c4403362ac729ceeb04601f09209"
    },
    {
      "constant": false,
      "inputs": [
        {
          "name": "name",
          "type": "bytes32"
        },
        {
          "name": "pass",
          "type": "string"
        }
      ],
      "name": "login",
      "outputs": [],
      "payable": false,
      "stateMutability": "nonpayable",
      "type": "function",
      "signature": "0xfeb6cec2"
    },
    {
      "constant": false,
      "inputs": [
        {
          "name": "_name",
          "type": "bytes32"
        },
        {
          "name": "_pass",
          "type": "string"
        }
      ],
      "name": "createUser",
      "outputs": [],
      "payable": false,
      "stateMutability": "nonpayable",
      "type": "function",
      "signature": "0x097b36dd"
    }
  ],
  "bytecode": "0x6080604052600060035534801561001557600080fd5b50610790806100256000396000f3fe608060405260043610610078576000357c0100000000000000000000000000000000000000000000000000000000900463ffffffff168063097b36dd1461007d57806320c38e2b1461014f578063365b98b21461019e5780635e5c06e2146101fb578063bff1f9e11461026e578063feb6cec214610299575b600080fd5b34801561008957600080fd5b5061014d600480360360408110156100a057600080fd5b8101908080359060200190929190803590602001906401000000008111156100c757600080fd5b8201836020820111156100d957600080fd5b803590602001918460018302840111640100000000831117156100fb57600080fd5b91908080601f016020809104026020016040519081016040528093929190818152602001838380828437600081840152601f19601f82011690508083019250505050505050919291929050505061036b565b005b34801561015b57600080fd5b506101886004803603602081101561017257600080fd5b810190808035906020019092919050505061053c565b6040518082815260200191505060405180910390f35b3480156101aa57600080fd5b506101d7600480360360208110156101c157600080fd5b8101908080359060200190929190505050610554565b60405180848152602001838152602001828152602001935050505060405180910390f35b34801561020757600080fd5b5061024a6004803603602081101561021e57600080fd5b81019080803573ffffffffffffffffffffffffffffffffffffffff16906020019092919050505061057e565b60405180848152602001838152602001828152602001935050505060405180910390f35b34801561027a57600080fd5b506102836105a8565b6040518082815260200191505060405180910390f35b3480156102a557600080fd5b50610369600480360360408110156102bc57600080fd5b8101908080359060200190929190803590602001906401000000008111156102e357600080fd5b8201836020820111156102f557600080fd5b8035906020019184600183028401116401000000008311171561031757600080fd5b91908080601f016020809104026020016040519081016040528093929190818152602001838380828437600081840152601f19601f8201169050808301925050505050505091929192905050506105ae565b005b6000602060ff1611151561037e57600080fd5b6000815111151561038e57600080fd5b600360008154809291906001019190505550600033905060004290506103b261073f565b606060405190810160405280600354815260200186815260200183815250905080600080600354815260200190815260200160002060008201518160000155602082015181600101556040820151816002015590505080600160008573ffffffffffffffffffffffffffffffffffffffff1673ffffffffffffffffffffffffffffffffffffffff168152602001908152602001600020600082015181600001556020820151816001015560408201518160020155905050836040516020018082805190602001908083835b6020831015156104a2578051825260208201915060208101905060208303925061047d565b6001836020036101000a0380198251168184511680821785525050505050509050019150506040516020818303038152906040528051906020012060026000878152602001908152602001600020819055507fa99539b072b4b36534f56e572a5d8c0d2ec61b125d06dac0fa397cb21c9f3d3b60035486604051808381526020018281526020019250505060405180910390a15050505050565b60026020528060005260406000206000915090505481565b60006020528060005260406000206000915090508060000154908060010154908060020154905083565b60016020528060005260406000206000915090508060000154908060010154908060020154905083565b60035481565b6000602060ff161115156105c157600080fd5b600081511115156105d157600080fd5b6000600260008481526020019081526020016000205490506000600102811115156105fb57600080fd5b6000826040516020018082805190602001908083835b6020831015156106365780518252602082019150602081019050602083039250610611565b6001836020036101000a038019825116818451168082178552505050505050905001915050604051602081830303815290604052805190602001209050600033905061068061073f565b600160008373ffffffffffffffffffffffffffffffffffffffff1673ffffffffffffffffffffffffffffffffffffffff16815260200190815260200160002060606040519081016040529081600082015481526020016001820154815260200160028201548152505090507fdee6aaa10f6c136b5202563940cda30c70c0c4403362ac729ceeb04601f09209838514801561071e5750816020015187145b604051808215151515815260200191505060405180910390a1505050505050565b606060405190810160405280600081526020016000801916815260200160008152509056fea165627a7a72305820f6a39337c23b45f2735c677ec65d7e7598c534b43065c151bff007d5a04a8c9b0029",
  "source": "pragma solidity ^0.5.0;\r\n\r\ncontract User{\r\n\r\n\tmapping(uint => Account) public users;\r\n\tmapping(address => Account) public accounts;\r\n\tmapping (bytes32 => bytes32) public names;\r\n\tuint public totalUsers = 0;\r\n\r\n\t\r\n\tstruct Account{\r\n\t\tuint id;\r\n\t\tbytes32 name;\r\n\t\tuint256 dateOfJoining;\r\n\t\t// bytes32 password;\r\n\t\t// address addr;\r\n\t}\r\n\r\n\tevent UserCreated(\r\n\t\tuint id,\r\n\t\tbytes32 name\r\n\t);\r\n\r\n\tevent LoggedIn(\r\n\t\tbool b1\r\n\t);\r\n\r\n\tfunction login(bytes32 name, string memory pass) public{\r\n\t\trequire(name.length > 0);\r\n\t\trequire(bytes(pass).length > 0);\r\n\t\tbytes32 p1 = names[name];\r\n\t\trequire(p1 > 0);\r\n\t\tbytes32 p2 = keccak256(abi.encodePacked(pass));\r\n\t\taddress addr = msg.sender;\r\n\t\tAccount memory acc = accounts[addr];\r\n\t\temit LoggedIn(p1==p2 && name==acc.name);\r\n\t}\r\n\r\n\tfunction createUser(bytes32 _name, string memory _pass) public {\r\n\t\trequire(_name.length > 0);\r\n\t\trequire(bytes(_pass).length > 0);\r\n\t\ttotalUsers++;\r\n\t\taddress addr = msg.sender;\r\n\t\tuint256 _dateOfJoining = block.timestamp;\r\n\t\tAccount memory acc = Account(totalUsers, _name, _dateOfJoining);\r\n\t\tusers[totalUsers] = acc;\r\n\t\taccounts[addr] = acc;\r\n\t\tnames[_name] = keccak256(abi.encodePacked(_pass));\r\n\t\temit UserCreated(totalUsers, _name);\r\n\t}\r\n\r\n\t// function getUser(address pubkey) view public returns(uint, string memory){\r\n\t// \temit UserReturned(\r\n\t// \t\taccount[pubkey].id,\r\n\t// \t\taccount[pubkey].name\r\n\t// \t);\r\n\t// }\r\n}",
  "sourcePath": "C:/Users/Abhishek/Desktop/git_projs/Decentralized-Social-Network/src/contracts/User.sol",
  "compiler": {
    "name": "solc",
    "version": "0.5.0+commit.1d4f565a.Emscripten.clang"
  },
  "schemaVersion": "3.0.2",
  "updatedAt": "2021-12-14T17:07:15.804Z",
  "devdoc": {
    "methods": {}
  },
  "userdoc": {
    "methods": {}
  }
}